:020000040800F2
:100000000000022051020008A1020008A10200081D
:10001000A1020008A1020008A102000800000000DF
:10002000000000000000000000000000A102000825
:10003000A102000800000000A1020008A1020008BF
:10004000A1020008A1020008A1020008A102000804
:10005000A1020008A1020008A1020008A1020008F4
:10006000A1020008A1020008A1020008A1020008E4
:10007000A1020008A1020008A1020008A1020008D4
:10008000A1020008A1020008A1020008A1020008C4
:10009000A1020008A1020008A1020008A1020008B4
:1000A000A1020008A1020008A1020008A1020008A4
:1000B000A1020008A1020008A1020008A102000894
:1000C000A1020008A1020008A1020008A102000884
:1000D000A1020008A1020008A1020008A102000874
:1000E000A1020008A1020008A1020008A102000864
:1000F000A1020008A1020008A1020008A102000854
:10010000A1020008A1020008A1020008A102000843
:10011000A1020008A1020008A1020008A102000833
:10012000A1020008A1020008A1020008A102000823
:10013000A10200080000000000000000A102000869
:10014000A1020008A1020008A1020008A102000803
:10015000A1020008A1020008A1020008A1020008F3
:10016000A1020008A1020008A1020008A1020008E3
:10017000A1020008A1020008A1020008000000007E
:10018000000000000000000000000000000000006F
:10019000A10200080000000000000000A102000809
:1001A000000000000000000000000000A1020008A4
:1001B000A1020008A1020008A1020008A102000893
:0401C000A102000890
:1001C4000348044B834202D0034B03B118477047E2
:1001D4000000002000000020000000000548064B3D
:1001E4001B1AD90F01EBA301491002D0034B03B131
:1001F40018477047000000200000002000000000A5
:1002040010B5064C237843B9FFF7DAFF044B13B15A
:100214000448AFF300800123237010BD00000020C8
:1002240000000000F402000808B5054B1BB10549A5
:100234000548AFF30080BDE80840FFF7CFBF00BF1B
:100244000000000004000020F40200080D48854668
:10025400AFF300800C480D490D4A002302E0D45846
:10026400C4500433C4188C42F9D30A4A0A4C0023FC
:1002740001E013600432A242FBD300F015F800F051
:100284000EF8FEE70000022000000020000000201D
:1002940014030008000000201C000020FEE780B4C6
:1002A40000AF00BFFDE7000070B50D4D0D4C641BA1
:1002B400A4100026A64209D10B4D0C4C00F018F8EE
:1002C400641BA4100026A64205D170BD55F8043B5A
:1002D40098470136EEE755F8043B98470136F2E7B4
:1002E4000C0300080C0300080C03000810030008AA
:1002F400F8B500BFF8BC08BC9E467047F8B500BF0F
:08030400F8BC08BC9E467047DE
:04030C002D020008B6
:0403100005020008DA
:04000005080002519C
:00000001FF
